{
  "contractName": "SupplyChainTracker",
  "abi": [
    {
      "anonymous": false,
      "inputs": [
        {
          "indexed": true,
          "internalType": "address",
          "name": "previousOwner",
          "type": "address"
        },
        {
          "indexed": true,
          "internalType": "address",
          "name": "newOwner",
          "type": "address"
        }
      ],
      "name": "OwnershipTransferred",
      "type": "event"
    },
    {
      "payable": false,
      "stateMutability": "nonpayable",
      "type": "fallback"
    },
    {
      "constant": true,
      "inputs": [],
      "name": "isOwner",
      "outputs": [
        {
          "internalType": "bool",
          "name": "",
          "type": "bool"
        }
      ],
      "payable": false,
      "stateMutability": "view",
      "type": "function"
    },
    {
      "constant": true,
      "inputs": [],
      "name": "owner",
      "outputs": [
        {
          "internalType": "address",
          "name": "",
          "type": "address"
        }
      ],
      "payable": false,
      "stateMutability": "view",
      "type": "function"
    },
    {
      "constant": false,
      "inputs": [],
      "name": "renounceOwnership",
      "outputs": [],
      "payable": false,
      "stateMutability": "nonpayable",
      "type": "function"
    },
    {
      "constant": false,
      "inputs": [
        {
          "internalType": "address",
          "name": "newOwner",
          "type": "address"
        }
      ],
      "name": "transferOwnership",
      "outputs": [],
      "payable": false,
      "stateMutability": "nonpayable",
      "type": "function"
    },
    {
      "constant": false,
      "inputs": [
        {
          "internalType": "uint256",
          "name": "roleId",
          "type": "uint256"
        },
        {
          "internalType": "address",
          "name": "user",
          "type": "address"
        }
      ],
      "name": "addRole",
      "outputs": [],
      "payable": false,
      "stateMutability": "nonpayable",
      "type": "function"
    },
    {
      "constant": false,
      "inputs": [
        {
          "internalType": "uint256",
          "name": "roleId",
          "type": "uint256"
        },
        {
          "internalType": "address",
          "name": "user",
          "type": "address"
        }
      ],
      "name": "removeRole",
      "outputs": [],
      "payable": false,
      "stateMutability": "nonpayable",
      "type": "function"
    },
    {
      "constant": false,
      "inputs": [
        {
          "internalType": "uint16",
          "name": "locationId",
          "type": "uint16"
        },
        {
          "internalType": "uint32",
          "name": "timeStamp",
          "type": "uint32"
        },
        {
          "internalType": "uint8",
          "name": "temperature",
          "type": "uint8"
        },
        {
          "internalType": "uint8",
          "name": "condition",
          "type": "uint8"
        }
      ],
      "name": "startSupply",
      "outputs": [],
      "payable": false,
      "stateMutability": "nonpayable",
      "type": "function"
    },
    {
      "constant": false,
      "inputs": [
        {
          "internalType": "uint256",
          "name": "itemId",
          "type": "uint256"
        },
        {
          "internalType": "uint16",
          "name": "locationId",
          "type": "uint16"
        },
        {
          "internalType": "uint32",
          "name": "timeStamp",
          "type": "uint32"
        },
        {
          "internalType": "uint8",
          "name": "temperature",
          "type": "uint8"
        },
        {
          "internalType": "uint8",
          "name": "condition",
          "type": "uint8"
        }
      ],
      "name": "appendSupply",
      "outputs": [],
      "payable": false,
      "stateMutability": "nonpayable",
      "type": "function"
    },
    {
      "constant": true,
      "inputs": [],
      "name": "getSuppliesLatest",
      "outputs": [
        {
          "internalType": "bytes",
          "name": "",
          "type": "bytes"
        }
      ],
      "payable": false,
      "stateMutability": "view",
      "type": "function"
    },
    {
      "constant": true,
      "inputs": [
        {
          "internalType": "uint256",
          "name": "itemId",
          "type": "uint256"
        }
      ],
      "name": "getSupplyLogs",
      "outputs": [
        {
          "internalType": "bytes",
          "name": "",
          "type": "bytes"
        }
      ],
      "payable": false,
      "stateMutability": "view",
      "type": "function"
    },
    {
      "constant": true,
      "inputs": [
        {
          "internalType": "uint256",
          "name": "itemId",
          "type": "uint256"
        }
      ],
      "name": "hasItem",
      "outputs": [
        {
          "internalType": "bool",
          "name": "",
          "type": "bool"
        }
      ],
      "payable": false,
      "stateMutability": "view",
      "type": "function"
    }
  ],
  "bytecode": "0x60806040526100126100d260201b60201c565b6000806101000a81548173ffffffffffffffffffffffffffffffffffffffff021916908373ffffffffffffffffffffffffffffffffffffffff1602179055506000809054906101000a900473ffffffffffffffffffffffffffffffffffffffff1673ffffffffffffffffffffffffffffffffffffffff16600073ffffffffffffffffffffffffffffffffffffffff167f8be0079c531659141344cd1fd0a4f28419497f9722a3daafe3b4186f6b6457e060405160405180910390a36100da565b600033905090565b611743806100e96000396000f3fe608060405234801561001057600080fd5b50600436106100a95760003560e01c80638da5cb5b116100715780638da5cb5b1461029e5780638f32d59b146102e85780639648382c1461030a578063cc5f0997146103b1578063ce901e62146103ff578063f2fde38b1461045b576100a9565b8063054efe73146101175780633238405b1461015d578063405a1324146101ab578063448f3cf81461022e578063715018a614610294575b6040517f08c379a000000000000000000000000000000000000000000000000000000000815260040180806020018281038252601c8152602001807f436f6e747261637420646f6573206e6f7420616363657074204574680000000081525060200191505060405180910390fd5b6101436004803603602081101561012d57600080fd5b810190808035906020019092919050505061049f565b604051808215151515815260200191505060405180910390f35b6101a96004803603604081101561017357600080fd5b8101908080359060200190929190803573ffffffffffffffffffffffffffffffffffffffff1690602001909291905050506104ae565b005b6101b361056a565b6040518080602001828103825283818151815260200191508051906020019080838360005b838110156101f35780820151818401526020810190506101d8565b50505050905090810190601f1680156102205780820380516001836020036101000a031916815260200191505b509250505060405180910390f35b610292600480360360a081101561024457600080fd5b8101908080359060200190929190803561ffff169060200190929190803563ffffffff169060200190929190803560ff169060200190929190803560ff1690602001909291905050506108dc565b005b61029c6109c4565b005b6102a6610afd565b604051808273ffffffffffffffffffffffffffffffffffffffff1673ffffffffffffffffffffffffffffffffffffffff16815260200191505060405180910390f35b6102f0610b26565b604051808215151515815260200191505060405180910390f35b6103366004803603602081101561032057600080fd5b8101908080359060200190929190505050610b84565b6040518080602001828103825283818151815260200191508051906020019080838360005b8381101561037657808201518184015260208101905061035b565b50505050905090810190601f1680156103a35780820380516001836020036101000a031916815260200191505b509250505060405180910390f35b6103fd600480360360408110156103c757600080fd5b8101908080359060200190929190803573ffffffffffffffffffffffffffffffffffffffff169060200190929190505050610ee6565b005b6104596004803603608081101561041557600080fd5b81019080803561ffff169060200190929190803563ffffffff169060200190929190803560ff169060200190929190803560ff169060200190929190505050610fa2565b005b61049d6004803603602081101561047157600080fd5b81019080803573ffffffffffffffffffffffffffffffffffffffff169060200190929190505050610fd2565b005b60006001548211159050919050565b600582815481106104bb57fe5b906000526020600020016104cd610b26565b806104e757506104e6338261105890919063ffffffff16565b5b61053c576040517f08c379a000000000000000000000000000000000000000000000000000000000815260040180806020018281038252603e815260200180611668603e913960400191505060405180910390fd5b610565826005858154811061054d57fe5b9060005260206000200161113690919063ffffffff16565b505050565b60606000600154116105e4576040517f08c379a00000000000000000000000000000000000000000000000000000000081526004018080602001828103825260128152602001807f546865726520617265206e6f206974656d73000000000000000000000000000081525060200191505060405180910390fd5b6105ec61162f565b600260008081526020019081526020016000206000600360008081526020019081526020016000205481526020019081526020016000206040518060800160405290816000820160009054906101000a900461ffff1661ffff1661ffff1681526020016000820160029054906101000a900463ffffffff1663ffffffff1663ffffffff1681526020016000820160069054906101000a900460ff1660ff1660ff1681526020016000820160079054906101000a900460ff1660ff1660ff1681525050905060608160000151826020015183606001518460400151604051602001808561ffff1661ffff1660f01b81526002018463ffffffff1663ffffffff1660e01b81526004018360ff1660ff1660f81b81526001018260ff1660ff1660f81b815260010194505050505060405160208183030381529060405290506000600190505b6001548110156108d357600260008281526020019081526020016000206000600360008481526020019081526020016000205481526020019081526020016000206040518060800160405290816000820160009054906101000a900461ffff1661ffff1661ffff1681526020016000820160029054906101000a900463ffffffff1663ffffffff1663ffffffff1681526020016000820160069054906101000a900460ff1660ff1660ff1681526020016000820160079054906101000a900460ff1660ff1660ff168152505092508183600001518460200151856060015186604001516040516020018086805190602001908083835b602083106108485780518252602082019150602081019050602083039250610825565b6001836020036101000a0380198251168184511680821785525050505050509050018561ffff1661ffff1660f01b81526002018463ffffffff1663ffffffff1660e01b81526004018360ff1660ff1660f81b81526001018260ff1660ff1660f81b8152600101955050505050506040516020818303038152906040529150808060010191505061072f565b50809250505090565b6108e58561049f565b610957576040517f08c379a00000000000000000000000000000000000000000000000000000000081526004018080602001828103825260138152602001807f4974656d20646f6573206e6f742065786973740000000000000000000000000081525060200191505060405180910390fd5b61096485858585856111f3565b6109796001805461138090919063ffffffff16565b6001819055506109a66001600360008881526020019081526020016000205461138090919063ffffffff16565b60036000878152602001908152602001600020819055505050505050565b6109cc610b26565b610a3e576040517f08c379a00000000000000000000000000000000000000000000000000000000081526004018080602001828103825260208152602001807f4f776e61626c653a2063616c6c6572206973206e6f7420746865206f776e657281525060200191505060405180910390fd5b600073ffffffffffffffffffffffffffffffffffffffff166000809054906101000a900473ffffffffffffffffffffffffffffffffffffffff1673ffffffffffffffffffffffffffffffffffffffff167f8be0079c531659141344cd1fd0a4f28419497f9722a3daafe3b4186f6b6457e060405160405180910390a360008060006101000a81548173ffffffffffffffffffffffffffffffffffffffff021916908373ffffffffffffffffffffffffffffffffffffffff160217905550565b60008060009054906101000a900473ffffffffffffffffffffffffffffffffffffffff16905090565b60008060009054906101000a900473ffffffffffffffffffffffffffffffffffffffff1673ffffffffffffffffffffffffffffffffffffffff16610b68611408565b73ffffffffffffffffffffffffffffffffffffffff1614905090565b6060610b8f8261049f565b610c01576040517f08c379a00000000000000000000000000000000000000000000000000000000081526004018080602001828103825260138152602001807f4974656d20646f6573206e6f742065786973740000000000000000000000000081525060200191505060405180910390fd5b610c0961162f565b6002600084815260200190815260200160002060008081526020019081526020016000206040518060800160405290816000820160009054906101000a900461ffff1661ffff1661ffff1681526020016000820160029054906101000a900463ffffffff1663ffffffff1663ffffffff1681526020016000820160069054906101000a900460ff1660ff1660ff1681526020016000820160079054906101000a900460ff1660ff1660ff1681525050905060608160000151826020015183606001518460400151604051602001808561ffff1661ffff1660f01b81526002018463ffffffff1663ffffffff1660e01b81526004018360ff1660ff1660f81b81526001018260ff1660ff1660f81b815260010194505050505060405160208183030381529060405290506000600190505b6003600086815260200190815260200160002054811015610edb576002600086815260200190815260200160002060008281526020019081526020016000206040518060800160405290816000820160009054906101000a900461ffff1661ffff1661ffff1681526020016000820160029054906101000a900463ffffffff1663ffffffff1663ffffffff1681526020016000820160069054906101000a900460ff1660ff1660ff1681526020016000820160079054906101000a900460ff1660ff1660ff168152505092508183600001518460200151856060015186604001516040516020018086805190602001908083835b60208310610e505780518252602082019150602081019050602083039250610e2d565b6001836020036101000a0380198251168184511680821785525050505050509050018561ffff1661ffff1660f01b81526002018463ffffffff1663ffffffff1660e01b81526004018360ff1660ff1660f81b81526001018260ff1660ff1660f81b81526001019550505050505060405160208183030381529060405291508080600101915050610d39565b508092505050919050565b60058281548110610ef357fe5b90600052602060002001610f05610b26565b80610f1f5750610f1e338261105890919063ffffffff16565b5b610f74576040517f08c379a000000000000000000000000000000000000000000000000000000000815260040180806020018281038252603e815260200180611668603e913960400191505060405180910390fd5b610f9d8260058581548110610f8557fe5b9060005260206000200161141090919063ffffffff16565b505050565b610fb1600154858585856111f3565b610fc66001805461138090919063ffffffff16565b60018190555050505050565b610fda610b26565b61104c576040517f08c379a00000000000000000000000000000000000000000000000000000000081526004018080602001828103825260208152602001807f4f776e61626c653a2063616c6c6572206973206e6f7420746865206f776e657281525060200191505060405180910390fd5b611055816114eb565b50565b60008073ffffffffffffffffffffffffffffffffffffffff168273ffffffffffffffffffffffffffffffffffffffff1614156110df576040517f08c379a00000000000000000000000000000000000000000000000000000000081526004018080602001828103825260228152602001806116ed6022913960400191505060405180910390fd5b8260000160008373ffffffffffffffffffffffffffffffffffffffff1673ffffffffffffffffffffffffffffffffffffffff16815260200190815260200160002060009054906101000a900460ff16905092915050565b6111408282611058565b611195576040517f08c379a00000000000000000000000000000000000000000000000000000000081526004018080602001828103825260218152602001806116cc6021913960400191505060405180910390fd5b60008260000160008373ffffffffffffffffffffffffffffffffffffffff1673ffffffffffffffffffffffffffffffffffffffff16815260200190815260200160002060006101000a81548160ff0219169083151502179055505050565b600460008561ffff168152602001908152602001600020611212610b26565b8061122c575061122b338261105890919063ffffffff16565b5b611281576040517f08c379a000000000000000000000000000000000000000000000000000000000815260040180806020018281038252603e815260200180611668603e913960400191505060405180910390fd5b60405180608001604052808661ffff1681526020018563ffffffff1681526020018460ff1681526020018360ff16815250600260008881526020019081526020016000206000600360008a815260200190815260200160002054815260200190815260200160002060008201518160000160006101000a81548161ffff021916908361ffff16021790555060208201518160000160026101000a81548163ffffffff021916908363ffffffff16021790555060408201518160000160066101000a81548160ff021916908360ff16021790555060608201518160000160076101000a81548160ff021916908360ff160217905550905050505050505050565b6000808284019050838110156113fe576040517f08c379a000000000000000000000000000000000000000000000000000000000815260040180806020018281038252601b8152602001807f536166654d6174683a206164646974696f6e206f766572666c6f77000000000081525060200191505060405180910390fd5b8091505092915050565b600033905090565b61141a8282611058565b1561148d576040517f08c379a000000000000000000000000000000000000000000000000000000000815260040180806020018281038252601f8152602001807f526f6c65733a206163636f756e7420616c72656164792068617320726f6c650081525060200191505060405180910390fd5b60018260000160008373ffffffffffffffffffffffffffffffffffffffff1673ffffffffffffffffffffffffffffffffffffffff16815260200190815260200160002060006101000a81548160ff0219169083151502179055505050565b600073ffffffffffffffffffffffffffffffffffffffff168173ffffffffffffffffffffffffffffffffffffffff161415611571576040517f08c379a00000000000000000000000000000000000000000000000000000000081526004018080602001828103825260268152602001806116a66026913960400191505060405180910390fd5b8073ffffffffffffffffffffffffffffffffffffffff166000809054906101000a900473ffffffffffffffffffffffffffffffffffffffff1673ffffffffffffffffffffffffffffffffffffffff167f8be0079c531659141344cd1fd0a4f28419497f9722a3daafe3b4186f6b6457e060405160405180910390a3806000806101000a81548173ffffffffffffffffffffffffffffffffffffffff021916908373ffffffffffffffffffffffffffffffffffffffff16021790555050565b6040518060800160405280600061ffff168152602001600063ffffffff168152602001600060ff168152602001600060ff168152509056fe4d757374206265206f776e6572206f722062656c6f6e6720746f20636f727265637420726f6c6520746f20706572666f726d207468697320616374696f6e4f776e61626c653a206e6577206f776e657220697320746865207a65726f2061646472657373526f6c65733a206163636f756e7420646f6573206e6f74206861766520726f6c65526f6c65733a206163636f756e7420697320746865207a65726f2061646472657373a265627a7a723158203961f8d09ef9152c4c5471ba4db0cd0cd62f98b564a6b1d38a4f1961fe96479864736f6c63430005100032",
  "source": "pragma solidity ^0.5.16;\nimport \"@openzeppelin/contracts/math/SafeMath.sol\";\nimport \"@openzeppelin/contracts/access/Roles.sol\";\nimport \"@openzeppelin/contracts/ownership/Ownable.sol\";\n\ncontract SupplyChainTracker is Ownable {\n    using SafeMath for uint256;\n    using Roles for Roles.Role;\n\n    struct Note {\n        uint16 locationId;\n        uint32 timeStamp;\n        uint8 condition;\n        uint8 temperature; // For example: 0 == \"Active\", 1 == \"expired\", 2 == \"IOT Malfunction\"\n    }\n\n    uint256 private numOfItems;\n    mapping(uint256 => mapping(uint256 => Note)) tracker; // itemId => stage => Note\n    mapping(uint256 => uint256) stageOfItem; // Sequential Nonce\n    mapping(uint256 => Roles.Role) locationIdToRole; // For example: 0 => brewery1, 1 => brewery2, 2 => retail1...\n    Roles.Role[] roles;\n\n    modifier isOwnerOrHasRole(Roles.Role storage role) {\n        require(isOwner() || role.has(msg.sender), \"Must be owner or belong to correct role to perform this action\");\n        _;\n    }\n\n    function addRole(uint256 roleId, address user) external isOwnerOrHasRole(roles[roleId]){\n        roles[roleId].add(user);\n    }\n\n    function removeRole(uint256 roleId, address user) external isOwnerOrHasRole(roles[roleId]){\n        roles[roleId].remove(user);\n    }\n\n    function startSupply(uint16 locationId, uint32 timeStamp, uint8 temperature, uint8 condition) external {\n        addSupplyEntry(numOfItems, locationId, timeStamp, temperature, condition);\n        numOfItems = numOfItems.add(1);\n    }\n\n    function appendSupply(uint256 itemId, uint16 locationId, uint32 timeStamp, uint8 temperature, uint8 condition) external {\n        require(hasItem(itemId), \"Item does not exist\");\n        addSupplyEntry(itemId, locationId, timeStamp, temperature, condition);\n        numOfItems = numOfItems.add(1);\n        stageOfItem[itemId] = stageOfItem[itemId].add(1);\n    }\n\n    function addSupplyEntry(uint256 itemId, uint16 locationId, uint32 timeStamp, uint8 temperature, uint8 condition)\n        internal isOwnerOrHasRole(locationIdToRole[locationId]) {\n            tracker[itemId][stageOfItem[itemId]] = Note(locationId, timeStamp, temperature, condition);\n    }\n\n    function getSuppliesLatest() external view returns (bytes memory) {\n        require(numOfItems > 0, \"There are no items\");\n        Note memory tempNote = tracker[0][stageOfItem[0]];\n        bytes memory suppliesLatest = abi.encodePacked(tempNote.locationId, tempNote.timeStamp, tempNote.temperature, tempNote.condition);\n        for (uint i = 1; i < numOfItems; i++) {\n            tempNote = tracker[i][stageOfItem[i]];\n            suppliesLatest = abi.encodePacked(suppliesLatest, tempNote.locationId, tempNote.timeStamp, tempNote.temperature, tempNote.condition);\n        }\n\n        return suppliesLatest;\n    }\n\n    function getSupplyLogs(uint256 itemId) external view returns (bytes memory) {\n        require(hasItem(itemId), \"Item does not exist\");\n        Note memory tempNote = tracker[itemId][0];\n        bytes memory suppliesLatest = abi.encodePacked(tempNote.locationId, tempNote.timeStamp, tempNote.temperature, tempNote.condition);\n        for (uint i = 1; i < stageOfItem[itemId]; i++) {\n            tempNote = tracker[itemId][i];\n            suppliesLatest = abi.encodePacked(suppliesLatest, tempNote.locationId, tempNote.timeStamp, tempNote.temperature, tempNote.condition);\n        }\n\n        return suppliesLatest;\n    }\n\n    function hasItem(uint256 itemId) public view returns (bool) {\n        return itemId <= numOfItems;\n    }\n\n    function () external {\n        revert('Contract does not accept Eth');\n    }\n}\n",
  "sourcePath": "/home/jason/Documents/Github/perishables-supply-chain/contracts/SupplyChainTracker.sol",
  "compiler": {
    "name": "solc",
    "version": "0.5.16+commit.9c3226ce.Emscripten.clang"
  },
  "schemaVersion": "3.0.21",
  "updatedAt": "2020-02-08T04:40:04.490Z",
  "networkType": "ethereum",
  "devdoc": {
    "methods": {
      "isOwner()": {
        "details": "Returns true if the caller is the current owner."
      },
      "owner()": {
        "details": "Returns the address of the current owner."
      },
      "renounceOwnership()": {
        "details": "Leaves the contract without owner. It will not be possible to call `onlyOwner` functions anymore. Can only be called by the current owner.     * NOTE: Renouncing ownership will leave the contract without an owner, thereby removing any functionality that is only available to the owner."
      },
      "transferOwnership(address)": {
        "details": "Transfers ownership of the contract to a new account (`newOwner`). Can only be called by the current owner."
      }
    }
  },
  "userdoc": {
    "methods": {}
  }
}