{
  "contractName": "SupplyChainTracker",
  "abi": [
    {
      "anonymous": false,
      "inputs": [
        {
          "indexed": true,
          "internalType": "address",
          "name": "previousOwner",
          "type": "address"
        },
        {
          "indexed": true,
          "internalType": "address",
          "name": "newOwner",
          "type": "address"
        }
      ],
      "name": "OwnershipTransferred",
      "type": "event"
    },
    {
      "payable": false,
      "stateMutability": "nonpayable",
      "type": "fallback"
    },
    {
      "constant": true,
      "inputs": [],
      "name": "isOwner",
      "outputs": [
        {
          "internalType": "bool",
          "name": "",
          "type": "bool"
        }
      ],
      "payable": false,
      "stateMutability": "view",
      "type": "function"
    },
    {
      "constant": true,
      "inputs": [],
      "name": "owner",
      "outputs": [
        {
          "internalType": "address",
          "name": "",
          "type": "address"
        }
      ],
      "payable": false,
      "stateMutability": "view",
      "type": "function"
    },
    {
      "constant": false,
      "inputs": [],
      "name": "renounceOwnership",
      "outputs": [],
      "payable": false,
      "stateMutability": "nonpayable",
      "type": "function"
    },
    {
      "constant": false,
      "inputs": [
        {
          "internalType": "address",
          "name": "newOwner",
          "type": "address"
        }
      ],
      "name": "transferOwnership",
      "outputs": [],
      "payable": false,
      "stateMutability": "nonpayable",
      "type": "function"
    },
    {
      "constant": false,
      "inputs": [
        {
          "internalType": "uint256",
          "name": "roleId",
          "type": "uint256"
        },
        {
          "internalType": "address",
          "name": "user",
          "type": "address"
        }
      ],
      "name": "addRole",
      "outputs": [],
      "payable": false,
      "stateMutability": "nonpayable",
      "type": "function"
    },
    {
      "constant": false,
      "inputs": [
        {
          "internalType": "uint256",
          "name": "roleId",
          "type": "uint256"
        },
        {
          "internalType": "address",
          "name": "user",
          "type": "address"
        }
      ],
      "name": "removeRole",
      "outputs": [],
      "payable": false,
      "stateMutability": "nonpayable",
      "type": "function"
    },
    {
      "constant": false,
      "inputs": [
        {
          "internalType": "uint16",
          "name": "locationId",
          "type": "uint16"
        },
        {
          "internalType": "uint32",
          "name": "timeStamp",
          "type": "uint32"
        },
        {
          "internalType": "uint8",
          "name": "temperature",
          "type": "uint8"
        }
      ],
      "name": "startSupply",
      "outputs": [],
      "payable": false,
      "stateMutability": "nonpayable",
      "type": "function"
    },
    {
      "constant": false,
      "inputs": [
        {
          "internalType": "uint256",
          "name": "itemId",
          "type": "uint256"
        },
        {
          "internalType": "uint16",
          "name": "locationId",
          "type": "uint16"
        },
        {
          "internalType": "uint32",
          "name": "timeStamp",
          "type": "uint32"
        },
        {
          "internalType": "uint8",
          "name": "temperature",
          "type": "uint8"
        }
      ],
      "name": "appendSupply",
      "outputs": [],
      "payable": false,
      "stateMutability": "nonpayable",
      "type": "function"
    },
    {
      "constant": true,
      "inputs": [],
      "name": "getSuppliesLatest",
      "outputs": [
        {
          "internalType": "bytes",
          "name": "",
          "type": "bytes"
        }
      ],
      "payable": false,
      "stateMutability": "view",
      "type": "function"
    },
    {
      "constant": true,
      "inputs": [
        {
          "internalType": "uint256",
          "name": "itemId",
          "type": "uint256"
        }
      ],
      "name": "getSupplyLogs",
      "outputs": [
        {
          "internalType": "bytes",
          "name": "",
          "type": "bytes"
        }
      ],
      "payable": false,
      "stateMutability": "view",
      "type": "function"
    },
    {
      "constant": true,
      "inputs": [
        {
          "internalType": "uint256",
          "name": "itemId",
          "type": "uint256"
        }
      ],
      "name": "hasItem",
      "outputs": [
        {
          "internalType": "bool",
          "name": "",
          "type": "bool"
        }
      ],
      "payable": false,
      "stateMutability": "view",
      "type": "function"
    }
  ],
  "bytecode": "0x60806040526100126100d260201b60201c565b6000806101000a81548173ffffffffffffffffffffffffffffffffffffffff021916908373ffffffffffffffffffffffffffffffffffffffff1602179055506000809054906101000a900473ffffffffffffffffffffffffffffffffffffffff1673ffffffffffffffffffffffffffffffffffffffff16600073ffffffffffffffffffffffffffffffffffffffff167f8be0079c531659141344cd1fd0a4f28419497f9722a3daafe3b4186f6b6457e060405160405180910390a36100da565b600033905090565b61160c806100e96000396000f3fe608060405234801561001057600080fd5b50600436106100a95760003560e01c80638da5cb5b116100715780638da5cb5b146102915780638f32d59b146102db5780639648382c146102fd578063cc5f0997146103a4578063e56212aa146103f2578063f2fde38b14610441576100a9565b8063054efe73146101175780631a60f6c61461015d5780633238405b146101b6578063405a132414610204578063715018a614610287575b6040517f08c379a000000000000000000000000000000000000000000000000000000000815260040180806020018281038252601c8152602001807f436f6e747261637420646f6573206e6f7420616363657074204574680000000081525060200191505060405180910390fd5b6101436004803603602081101561012d57600080fd5b8101908080359060200190929190505050610485565b604051808215151515815260200191505060405180910390f35b6101b46004803603608081101561017357600080fd5b8101908080359060200190929190803561ffff169060200190929190803563ffffffff169060200190929190803560ff169060200190929190505050610493565b005b610202600480360360408110156101cc57600080fd5b8101908080359060200190929190803573ffffffffffffffffffffffffffffffffffffffff16906020019092919050505061055e565b005b61020c61061a565b6040518080602001828103825283818151815260200191508051906020019080838360005b8381101561024c578082015181840152602081019050610231565b50505050905090810190601f1680156102795780820380516001836020036101000a031916815260200191505b509250505060405180910390f35b61028f610928565b005b610299610a61565b604051808273ffffffffffffffffffffffffffffffffffffffff1673ffffffffffffffffffffffffffffffffffffffff16815260200191505060405180910390f35b6102e3610a8a565b604051808215151515815260200191505060405180910390f35b6103296004803603602081101561031357600080fd5b8101908080359060200190929190505050610ae8565b6040518080602001828103825283818151815260200191508051906020019080838360005b8381101561036957808201518184015260208101905061034e565b50505050905090810190601f1680156103965780820380516001836020036101000a031916815260200191505b509250505060405180910390f35b6103f0600480360360408110156103ba57600080fd5b8101908080359060200190929190803573ffffffffffffffffffffffffffffffffffffffff169060200190929190505050610de6565b005b61043f6004803603606081101561040857600080fd5b81019080803561ffff169060200190929190803563ffffffff169060200190929190803560ff169060200190929190505050610ea2565b005b6104836004803603602081101561045757600080fd5b81019080803573ffffffffffffffffffffffffffffffffffffffff169060200190929190505050610ed0565b005b600060015482109050919050565b61049c84610485565b61050e576040517f08c379a00000000000000000000000000000000000000000000000000000000081526004018080602001828103825260138152602001807f4974656d20646f6573206e6f742065786973740000000000000000000000000081525060200191505060405180910390fd5b61051a84848484610f56565b610541600160036000878152602001908152602001600020546110b890919063ffffffff16565b600360008681526020019081526020016000208190555050505050565b6005828154811061056b57fe5b9060005260206000200161057d610a8a565b806105975750610596338261114090919063ffffffff16565b5b6105ec576040517f08c379a000000000000000000000000000000000000000000000000000000000815260040180806020018281038252603e815260200180611531603e913960400191505060405180910390fd5b61061582600585815481106105fd57fe5b9060005260206000200161121e90919063ffffffff16565b505050565b6060600060015411610694576040517f08c379a00000000000000000000000000000000000000000000000000000000081526004018080602001828103825260128152602001807f546865726520617265206e6f206974656d73000000000000000000000000000081525060200191505060405180910390fd5b61069c611502565b600260008081526020019081526020016000206000600360008081526020019081526020016000205481526020019081526020016000206040518060600160405290816000820160009054906101000a900461ffff1661ffff1661ffff1681526020016000820160029054906101000a900463ffffffff1663ffffffff1663ffffffff1681526020016000820160069054906101000a900460ff1660ff1660ff168152505090506060816000015182602001518360400151604051602001808461ffff1661ffff1660f01b81526002018363ffffffff1663ffffffff1660e01b81526004018260ff1660ff1660f81b8152600101935050505060405160208183030381529060405290506000600190505b60015481101561091f57600260008281526020019081526020016000206000600360008481526020019081526020016000205481526020019081526020016000206040518060600160405290816000820160009054906101000a900461ffff1661ffff1661ffff1681526020016000820160029054906101000a900463ffffffff1663ffffffff1663ffffffff1681526020016000820160069054906101000a900460ff1660ff1660ff16815250509250818360000151846020015185604001516040516020018085805190602001908083835b602083106108a45780518252602082019150602081019050602083039250610881565b6001836020036101000a0380198251168184511680821785525050505050509050018461ffff1661ffff1660f01b81526002018363ffffffff1663ffffffff1660e01b81526004018260ff1660ff1660f81b8152600101945050505050604051602081830303815290604052915080806001019150506107ad565b50809250505090565b610930610a8a565b6109a2576040517f08c379a00000000000000000000000000000000000000000000000000000000081526004018080602001828103825260208152602001807f4f776e61626c653a2063616c6c6572206973206e6f7420746865206f776e657281525060200191505060405180910390fd5b600073ffffffffffffffffffffffffffffffffffffffff166000809054906101000a900473ffffffffffffffffffffffffffffffffffffffff1673ffffffffffffffffffffffffffffffffffffffff167f8be0079c531659141344cd1fd0a4f28419497f9722a3daafe3b4186f6b6457e060405160405180910390a360008060006101000a81548173ffffffffffffffffffffffffffffffffffffffff021916908373ffffffffffffffffffffffffffffffffffffffff160217905550565b60008060009054906101000a900473ffffffffffffffffffffffffffffffffffffffff16905090565b60008060009054906101000a900473ffffffffffffffffffffffffffffffffffffffff1673ffffffffffffffffffffffffffffffffffffffff16610acc6112db565b73ffffffffffffffffffffffffffffffffffffffff1614905090565b6060610af382610485565b610b65576040517f08c379a00000000000000000000000000000000000000000000000000000000081526004018080602001828103825260138152602001807f4974656d20646f6573206e6f742065786973740000000000000000000000000081525060200191505060405180910390fd5b610b6d611502565b6002600084815260200190815260200160002060008081526020019081526020016000206040518060600160405290816000820160009054906101000a900461ffff1661ffff1661ffff1681526020016000820160029054906101000a900463ffffffff1663ffffffff1663ffffffff1681526020016000820160069054906101000a900460ff1660ff1660ff168152505090506060816000015182602001518360400151604051602001808461ffff1661ffff1660f01b81526002018363ffffffff1663ffffffff1660e01b81526004018260ff1660ff1660f81b8152600101935050505060405160208183030381529060405290506000600190505b6003600086815260200190815260200160002054811015610ddb576002600086815260200190815260200160002060008281526020019081526020016000206040518060600160405290816000820160009054906101000a900461ffff1661ffff1661ffff1681526020016000820160029054906101000a900463ffffffff1663ffffffff1663ffffffff1681526020016000820160069054906101000a900460ff1660ff1660ff16815250509250818360000151846020015185604001516040516020018085805190602001908083835b60208310610d605780518252602082019150602081019050602083039250610d3d565b6001836020036101000a0380198251168184511680821785525050505050509050018461ffff1661ffff1660f01b81526002018363ffffffff1663ffffffff1660e01b81526004018260ff1660ff1660f81b815260010194505050505060405160208183030381529060405291508080600101915050610c6b565b508092505050919050565b60058281548110610df357fe5b90600052602060002001610e05610a8a565b80610e1f5750610e1e338261114090919063ffffffff16565b5b610e74576040517f08c379a000000000000000000000000000000000000000000000000000000000815260040180806020018281038252603e815260200180611531603e913960400191505060405180910390fd5b610e9d8260058581548110610e8557fe5b906000526020600020016112e390919063ffffffff16565b505050565b610eb0600154848484610f56565b610ec5600180546110b890919063ffffffff16565b600181905550505050565b610ed8610a8a565b610f4a576040517f08c379a00000000000000000000000000000000000000000000000000000000081526004018080602001828103825260208152602001807f4f776e61626c653a2063616c6c6572206973206e6f7420746865206f776e657281525060200191505060405180910390fd5b610f53816113be565b50565b600460008461ffff168152602001908152602001600020610f75610a8a565b80610f8f5750610f8e338261114090919063ffffffff16565b5b610fe4576040517f08c379a000000000000000000000000000000000000000000000000000000000815260040180806020018281038252603e815260200180611531603e913960400191505060405180910390fd5b60405180606001604052808561ffff1681526020018463ffffffff1681526020018360ff168152506002600087815260200190815260200160002060006003600089815260200190815260200160002054815260200190815260200160002060008201518160000160006101000a81548161ffff021916908361ffff16021790555060208201518160000160026101000a81548163ffffffff021916908363ffffffff16021790555060408201518160000160066101000a81548160ff021916908360ff1602179055509050505050505050565b600080828401905083811015611136576040517f08c379a000000000000000000000000000000000000000000000000000000000815260040180806020018281038252601b8152602001807f536166654d6174683a206164646974696f6e206f766572666c6f77000000000081525060200191505060405180910390fd5b8091505092915050565b60008073ffffffffffffffffffffffffffffffffffffffff168273ffffffffffffffffffffffffffffffffffffffff1614156111c7576040517f08c379a00000000000000000000000000000000000000000000000000000000081526004018080602001828103825260228152602001806115b66022913960400191505060405180910390fd5b8260000160008373ffffffffffffffffffffffffffffffffffffffff1673ffffffffffffffffffffffffffffffffffffffff16815260200190815260200160002060009054906101000a900460ff16905092915050565b6112288282611140565b61127d576040517f08c379a00000000000000000000000000000000000000000000000000000000081526004018080602001828103825260218152602001806115956021913960400191505060405180910390fd5b60008260000160008373ffffffffffffffffffffffffffffffffffffffff1673ffffffffffffffffffffffffffffffffffffffff16815260200190815260200160002060006101000a81548160ff0219169083151502179055505050565b600033905090565b6112ed8282611140565b15611360576040517f08c379a000000000000000000000000000000000000000000000000000000000815260040180806020018281038252601f8152602001807f526f6c65733a206163636f756e7420616c72656164792068617320726f6c650081525060200191505060405180910390fd5b60018260000160008373ffffffffffffffffffffffffffffffffffffffff1673ffffffffffffffffffffffffffffffffffffffff16815260200190815260200160002060006101000a81548160ff0219169083151502179055505050565b600073ffffffffffffffffffffffffffffffffffffffff168173ffffffffffffffffffffffffffffffffffffffff161415611444576040517f08c379a000000000000000000000000000000000000000000000000000000000815260040180806020018281038252602681526020018061156f6026913960400191505060405180910390fd5b8073ffffffffffffffffffffffffffffffffffffffff166000809054906101000a900473ffffffffffffffffffffffffffffffffffffffff1673ffffffffffffffffffffffffffffffffffffffff167f8be0079c531659141344cd1fd0a4f28419497f9722a3daafe3b4186f6b6457e060405160405180910390a3806000806101000a81548173ffffffffffffffffffffffffffffffffffffffff021916908373ffffffffffffffffffffffffffffffffffffffff16021790555050565b6040518060600160405280600061ffff168152602001600063ffffffff168152602001600060ff168152509056fe4d757374206265206f776e6572206f722062656c6f6e6720746f20636f727265637420726f6c6520746f20706572666f726d207468697320616374696f6e4f776e61626c653a206e6577206f776e657220697320746865207a65726f2061646472657373526f6c65733a206163636f756e7420646f6573206e6f74206861766520726f6c65526f6c65733a206163636f756e7420697320746865207a65726f2061646472657373a265627a7a72315820ac91b333c8e9e8090e0b33fbf7967b41630dd8123566a9c16b4044ee6695078264736f6c63430005100032",
  "source": "pragma solidity ^0.5.16;\r\nimport \"@openzeppelin/contracts/math/SafeMath.sol\";\r\nimport \"@openzeppelin/contracts/access/Roles.sol\";\r\nimport \"@openzeppelin/contracts/ownership/Ownable.sol\";\r\n\r\ncontract SupplyChainTracker is Ownable {\r\n    using SafeMath for uint256;\r\n    using Roles for Roles.Role;\r\n\r\n    struct Note {\r\n        uint16 locationId;\r\n        uint32 timeStamp;\r\n        uint8 temperature; // For example: 0 == \"Active\", 1 == \"expired\", 2 == \"IOT Malfunction\"\r\n    }\r\n\r\n    uint256 private numOfItems;\r\n    mapping(uint256 => mapping(uint256 => Note)) tracker; // itemId => stage => Note\r\n    mapping(uint256 => uint256) stageOfItem; // Sequential Nonce\r\n    mapping(uint256 => Roles.Role) locationIdToRole; // For example: 0 => brewery1, 1 => brewery2, 2 => retail1...\r\n    Roles.Role[] roles;\r\n\r\n    modifier isOwnerOrHasRole(Roles.Role storage role) {\r\n        require(isOwner() || role.has(msg.sender), \"Must be owner or belong to correct role to perform this action\");\r\n        _;\r\n    }\r\n\r\n    function addRole(uint256 roleId, address user) external isOwnerOrHasRole(roles[roleId]){\r\n        roles[roleId].add(user);\r\n    }\r\n\r\n    function removeRole(uint256 roleId, address user) external isOwnerOrHasRole(roles[roleId]){\r\n        roles[roleId].remove(user);\r\n    }\r\n\r\n    function startSupply(uint16 locationId, uint32 timeStamp, uint8 temperature) external {\r\n        addSupplyEntry(numOfItems, locationId, timeStamp, temperature);\r\n        numOfItems = numOfItems.add(1);\r\n    }\r\n\r\n    function appendSupply(uint256 itemId, uint16 locationId, uint32 timeStamp, uint8 temperature) external {\r\n        require(hasItem(itemId), \"Item does not exist\");\r\n        addSupplyEntry(itemId, locationId, timeStamp, temperature);\r\n        stageOfItem[itemId] = stageOfItem[itemId].add(1);\r\n    }\r\n\r\n    function addSupplyEntry(uint256 itemId, uint16 locationId, uint32 timeStamp, uint8 temperature)\r\n        internal isOwnerOrHasRole(locationIdToRole[locationId]) {\r\n            tracker[itemId][stageOfItem[itemId]] = Note(locationId, timeStamp, temperature);\r\n    }\r\n\r\n    function getSuppliesLatest() external view returns (bytes memory) {\r\n        require(numOfItems > 0, \"There are no items\");\r\n        Note memory tempNote = tracker[0][stageOfItem[0]];\r\n        bytes memory suppliesLatest = abi.encodePacked(tempNote.locationId, tempNote.timeStamp, tempNote.temperature);\r\n        for (uint i = 1; i < numOfItems; i++) {\r\n            tempNote = tracker[i][stageOfItem[i]];\r\n            suppliesLatest = abi.encodePacked(suppliesLatest, tempNote.locationId, tempNote.timeStamp, tempNote.temperature);\r\n        }\r\n\r\n        return suppliesLatest;\r\n    }\r\n\r\n    function getSupplyLogs(uint256 itemId) external view returns (bytes memory) {\r\n        require(hasItem(itemId), \"Item does not exist\");\r\n        Note memory tempNote = tracker[itemId][0];\r\n        bytes memory suppliesLatest = abi.encodePacked(tempNote.locationId, tempNote.timeStamp, tempNote.temperature);\r\n        for (uint i = 1; i < stageOfItem[itemId]; i++) {\r\n            tempNote = tracker[itemId][i];\r\n            suppliesLatest = abi.encodePacked(suppliesLatest, tempNote.locationId, tempNote.timeStamp, tempNote.temperature);\r\n        }\r\n\r\n        return suppliesLatest;\r\n    }\r\n\r\n    function hasItem(uint256 itemId) public view returns (bool) {\r\n        return itemId < numOfItems;\r\n    }\r\n\r\n    function () external {\r\n        revert('Contract does not accept Eth');\r\n    }\r\n}\r\n",
  "sourcePath": "C:/Users/Kasra/Documents/GitHub/perishables-supply-chain/contracts/SupplyChainTracker.sol",
  "compiler": {
    "name": "solc",
    "version": "0.5.16+commit.9c3226ce.Emscripten.clang"
  },
  "schemaVersion": "3.0.21",
  "updatedAt": "2020-02-08T00:36:30.500Z",
  "networkType": "ethereum",
  "devdoc": {
    "methods": {
      "isOwner()": {
        "details": "Returns true if the caller is the current owner."
      },
      "owner()": {
        "details": "Returns the address of the current owner."
      },
      "renounceOwnership()": {
        "details": "Leaves the contract without owner. It will not be possible to call `onlyOwner` functions anymore. Can only be called by the current owner.     * NOTE: Renouncing ownership will leave the contract without an owner, thereby removing any functionality that is only available to the owner."
      },
      "transferOwnership(address)": {
        "details": "Transfers ownership of the contract to a new account (`newOwner`). Can only be called by the current owner."
      }
    }
  },
  "userdoc": {
    "methods": {}
  }
}